{
  "contractName": "Auction",
  "abi": [
    {
      "inputs": [
        {
          "internalType": "contract nft",
          "name": "_nftset",
          "type": "address"
        }
      ],
      "stateMutability": "nonpayable",
      "type": "constructor"
    },
    {
      "anonymous": false,
      "inputs": [
        {
          "indexed": false,
          "internalType": "uint256",
          "name": "id",
          "type": "uint256"
        },
        {
          "indexed": false,
          "internalType": "uint256",
          "name": "tokenId",
          "type": "uint256"
        },
        {
          "indexed": false,
          "internalType": "uint256",
          "name": "auctionEnd",
          "type": "uint256"
        },
        {
          "indexed": false,
          "internalType": "uint256",
          "name": "startPrice",
          "type": "uint256"
        }
      ],
      "name": "AuctionAdded",
      "type": "event"
    },
    {
      "anonymous": false,
      "inputs": [
        {
          "indexed": false,
          "internalType": "uint256",
          "name": "id",
          "type": "uint256"
        },
        {
          "indexed": false,
          "internalType": "address",
          "name": "winner",
          "type": "address"
        },
        {
          "indexed": false,
          "internalType": "uint256",
          "name": "amount",
          "type": "uint256"
        }
      ],
      "name": "AuctionEnded",
      "type": "event"
    },
    {
      "anonymous": false,
      "inputs": [
        {
          "indexed": false,
          "internalType": "uint256",
          "name": "id",
          "type": "uint256"
        },
        {
          "indexed": false,
          "internalType": "address",
          "name": "bidder",
          "type": "address"
        },
        {
          "indexed": false,
          "internalType": "uint256",
          "name": "amount",
          "type": "uint256"
        }
      ],
      "name": "HighestBidIncreased",
      "type": "event"
    },
    {
      "inputs": [
        {
          "internalType": "uint256",
          "name": "",
          "type": "uint256"
        }
      ],
      "name": "activeItems",
      "outputs": [
        {
          "internalType": "bool",
          "name": "",
          "type": "bool"
        }
      ],
      "stateMutability": "view",
      "type": "function",
      "constant": true
    },
    {
      "inputs": [
        {
          "internalType": "uint256",
          "name": "",
          "type": "uint256"
        }
      ],
      "name": "aucItem",
      "outputs": [
        {
          "internalType": "uint256",
          "name": "id",
          "type": "uint256"
        },
        {
          "internalType": "address payable",
          "name": "beneficiary",
          "type": "address"
        },
        {
          "internalType": "uint256",
          "name": "tokenId",
          "type": "uint256"
        },
        {
          "internalType": "uint256",
          "name": "auctionEnd",
          "type": "uint256"
        },
        {
          "internalType": "uint256",
          "name": "startPrice",
          "type": "uint256"
        },
        {
          "internalType": "address",
          "name": "highestBidder",
          "type": "address"
        },
        {
          "internalType": "uint256",
          "name": "highestBid",
          "type": "uint256"
        },
        {
          "internalType": "bool",
          "name": "ended",
          "type": "bool"
        },
        {
          "internalType": "bool",
          "name": "haveBid",
          "type": "bool"
        }
      ],
      "stateMutability": "view",
      "type": "function",
      "constant": true
    },
    {
      "inputs": [
        {
          "internalType": "address",
          "name": "",
          "type": "address"
        }
      ],
      "name": "pendingReturns",
      "outputs": [
        {
          "internalType": "uint256",
          "name": "",
          "type": "uint256"
        }
      ],
      "stateMutability": "view",
      "type": "function",
      "constant": true
    },
    {
      "inputs": [
        {
          "internalType": "uint256",
          "name": "_tokenId",
          "type": "uint256"
        },
        {
          "internalType": "uint256",
          "name": "_biddingTime",
          "type": "uint256"
        },
        {
          "internalType": "uint256",
          "name": "_startPrice",
          "type": "uint256"
        }
      ],
      "name": "AuctionAdd",
      "outputs": [
        {
          "internalType": "uint256",
          "name": "",
          "type": "uint256"
        }
      ],
      "stateMutability": "nonpayable",
      "type": "function"
    },
    {
      "inputs": [
        {
          "internalType": "uint256",
          "name": "id",
          "type": "uint256"
        }
      ],
      "name": "bid",
      "outputs": [],
      "stateMutability": "payable",
      "type": "function",
      "payable": true
    },
    {
      "inputs": [],
      "name": "withdraw",
      "outputs": [
        {
          "internalType": "bool",
          "name": "",
          "type": "bool"
        }
      ],
      "stateMutability": "nonpayable",
      "type": "function"
    },
    {
      "inputs": [
        {
          "internalType": "uint256",
          "name": "id",
          "type": "uint256"
        }
      ],
      "name": "fetch",
      "outputs": [],
      "stateMutability": "nonpayable",
      "type": "function"
    },
    {
      "inputs": [
        {
          "internalType": "uint256",
          "name": "id",
          "type": "uint256"
        }
      ],
      "name": "claim",
      "outputs": [],
      "stateMutability": "nonpayable",
      "type": "function"
    },
    {
      "inputs": [],
      "name": "totalForAuction",
      "outputs": [
        {
          "internalType": "uint256",
          "name": "",
          "type": "uint256"
        }
      ],
      "stateMutability": "view",
      "type": "function",
      "constant": true
    },
    {
      "inputs": [],
      "name": "getallauction",
      "outputs": [
        {
          "components": [
            {
              "internalType": "uint256",
              "name": "id",
              "type": "uint256"
            },
            {
              "internalType": "address payable",
              "name": "beneficiary",
              "type": "address"
            },
            {
              "internalType": "uint256",
              "name": "tokenId",
              "type": "uint256"
            },
            {
              "internalType": "uint256",
              "name": "auctionEnd",
              "type": "uint256"
            },
            {
              "internalType": "uint256",
              "name": "startPrice",
              "type": "uint256"
            },
            {
              "internalType": "address",
              "name": "highestBidder",
              "type": "address"
            },
            {
              "internalType": "uint256",
              "name": "highestBid",
              "type": "uint256"
            },
            {
              "internalType": "bool",
              "name": "ended",
              "type": "bool"
            },
            {
              "internalType": "bool",
              "name": "haveBid",
              "type": "bool"
            },
            {
              "components": [
                {
                  "internalType": "address",
                  "name": "bidder",
                  "type": "address"
                },
                {
                  "internalType": "uint256",
                  "name": "bid",
                  "type": "uint256"
                }
              ],
              "internalType": "struct Auction.bidhistory[]",
              "name": "bidhis",
              "type": "tuple[]"
            }
          ],
          "internalType": "struct Auction.AuctionItem[]",
          "name": "",
          "type": "tuple[]"
        }
      ],
      "stateMutability": "nonpayable",
      "type": "function"
    }
  ],
  "bytecode": "0x60806040523480156200001157600080fd5b5060405162002b3c38038062002b3c8339818101604052810190620000379190620000fc565b806000806101000a81548173ffffffffffffffffffffffffffffffffffffffff021916908373ffffffffffffffffffffffffffffffffffffffff160217905550506200012e565b600080fd5b600073ffffffffffffffffffffffffffffffffffffffff82169050919050565b6000620000b08262000083565b9050919050565b6000620000c482620000a3565b9050919050565b620000d681620000b7565b8114620000e257600080fd5b50565b600081519050620000f681620000cb565b92915050565b6000602082840312156200011557620001146200007e565b5b60006200012584828501620000e5565b91505092915050565b6129fe806200013e6000396000f3fe6080604052600436106100915760003560e01c80635254ac7b116100595780635254ac7b1461016e578063657c5b3f146101b35780637a33e3b0146101de5780639c318c7b14610207578063a0a612da1461024457610091565b806326b387bb146100965780633294cd0b146100d3578063379607f5146100fe5780633ccfd60b14610127578063454a2ab314610152575b600080fd5b3480156100a257600080fd5b506100bd60048036038101906100b89190611c5d565b610281565b6040516100ca9190611ca3565b60405180910390f35b3480156100df57600080fd5b506100e8610299565b6040516100f59190611ca3565b60405180910390f35b34801561010a57600080fd5b5061012560048036038101906101209190611cea565b6102a6565b005b34801561013357600080fd5b5061013c610948565b6040516101499190611d32565b60405180910390f35b61016c60048036038101906101679190611cea565b610aea565b005b34801561017a57600080fd5b5061019560048036038101906101909190611cea565b611150565b6040516101aa99989796959493929190611d7d565b60405180910390f35b3480156101bf57600080fd5b506101c8611208565b6040516101d591906120c0565b60405180910390f35b3480156101ea57600080fd5b5061020560048036038101906102009190611cea565b61143b565b005b34801561021357600080fd5b5061022e60048036038101906102299190611cea565b611761565b60405161023b9190611d32565b60405180910390f35b34801561025057600080fd5b5061026b600480360381019061026691906120e2565b611781565b6040516102789190611ca3565b60405180910390f35b60016020528060005260406000206000915090505481565b6000600280549050905090565b80600280549050811080156102df575080600282815481106102cb576102ca612135565b5b906000526020600020906009020160000154145b61031e576040517f08c379a0000000000000000000000000000000000000000000000000000000008152600401610315906121c1565b60405180910390fd5b816002818154811061033357610332612135565b5b9060005260206000209060090201600301544211610386576040517f08c379a000000000000000000000000000000000000000000000000000000000815260040161037d9061222d565b60405180910390fd5b826002818154811061039b5761039a612135565b5b906000526020600020906009020160070160019054906101000a900460ff16801561043657503373ffffffffffffffffffffffffffffffffffffffff16600282815481106103ec576103eb612135565b5b906000526020600020906009020160050160009054906101000a900473ffffffffffffffffffffffffffffffffffffffff1673ffffffffffffffffffffffffffffffffffffffff16145b610475576040517f08c379a000000000000000000000000000000000000000000000000000000000815260040161046c90612299565b60405180910390fd5b6002848154811061048957610488612135565b5b9060005260206000209060090201600201543073ffffffffffffffffffffffffffffffffffffffff1660008054906101000a900473ffffffffffffffffffffffffffffffffffffffff1673ffffffffffffffffffffffffffffffffffffffff1663081812fc836040518263ffffffff1660e01b815260040161050b9190611ca3565b60206040518083038186803b15801561052357600080fd5b505afa158015610537573d6000803e3d6000fd5b505050506040513d601f19601f8201168201806040525081019061055b91906122ce565b73ffffffffffffffffffffffffffffffffffffffff16146105b1576040517f08c379a00000000000000000000000000000000000000000000000000000000081526004016105a890612347565b60405180910390fd5b6001600286815481106105c7576105c6612135565b5b906000526020600020906009020160070160006101000a81548160ff0219169083151502179055506000600360006002888154811061060957610608612135565b5b906000526020600020906009020160020154815260200190815260200160002060006101000a81548160ff02191690831515021790555060008054906101000a900473ffffffffffffffffffffffffffffffffffffffff1673ffffffffffffffffffffffffffffffffffffffff166342842e0e600287815481106106905761068f612135565b5b906000526020600020906009020160010160009054906101000a900473ffffffffffffffffffffffffffffffffffffffff1633600289815481106106d7576106d6612135565b5b9060005260206000209060090201600201546040518463ffffffff1660e01b8152600401610707939291906123c6565b600060405180830381600087803b15801561072157600080fd5b505af1158015610735573d6000803e3d6000fd5b5050505060008054906101000a900473ffffffffffffffffffffffffffffffffffffffff1673ffffffffffffffffffffffffffffffffffffffff166345df45146002878154811061078957610788612135565b5b906000526020600020906009020160020154336040518363ffffffff1660e01b81526004016107b99291906123fd565b600060405180830381600087803b1580156107d357600080fd5b505af11580156107e7573d6000803e3d6000fd5b50505050600285815481106107ff576107fe612135565b5b906000526020600020906009020160010160009054906101000a900473ffffffffffffffffffffffffffffffffffffffff1673ffffffffffffffffffffffffffffffffffffffff166108fc6002878154811061085e5761085d612135565b5b9060005260206000209060090201600601549081150290604051600060405180830381858888f1935050505015801561089b573d6000803e3d6000fd5b507fd2aa34a4fdbbc6dff6a3e56f46e0f3ae2a31d7785ff3487aa5c95c642acea50185600287815481106108d2576108d1612135565b5b906000526020600020906009020160050160009054906101000a900473ffffffffffffffffffffffffffffffffffffffff166002888154811061091857610917612135565b5b90600052602060002090600902016006015460405161093993929190612426565b60405180910390a15050505050565b600080600160003373ffffffffffffffffffffffffffffffffffffffff1673ffffffffffffffffffffffffffffffffffffffff16815260200190815260200160002054116109cb576040517f08c379a00000000000000000000000000000000000000000000000000000000081526004016109c2906124a9565b60405180910390fd5b6000600160003373ffffffffffffffffffffffffffffffffffffffff1673ffffffffffffffffffffffffffffffffffffffff168152602001908152602001600020549050600080600160003373ffffffffffffffffffffffffffffffffffffffff1673ffffffffffffffffffffffffffffffffffffffff168152602001908152602001600020819055503373ffffffffffffffffffffffffffffffffffffffff166108fc839081150290604051600060405180830381858888f19350505050905080610ae05781600160003373ffffffffffffffffffffffffffffffffffffffff1673ffffffffffffffffffffffffffffffffffffffff16815260200190815260200160002081905550600092505050610ae7565b6001925050505b90565b8060028054905081108015610b2357508060028281548110610b0f57610b0e612135565b5b906000526020600020906009020160000154145b610b62576040517f08c379a0000000000000000000000000000000000000000000000000000000008152600401610b59906121c1565b60405180910390fd5b8160028181548110610b7757610b76612135565b5b906000526020600020906009020160070160009054906101000a900460ff1615610bd6576040517f08c379a0000000000000000000000000000000000000000000000000000000008152600401610bcd90612515565b60405180910390fd5b8260028181548110610beb57610bea612135565b5b906000526020600020906009020160030154421115610c3f576040517f08c379a0000000000000000000000000000000000000000000000000000000008152600401610c3690612581565b60405180910390fd5b60028481548110610c5357610c52612135565b5b906000526020600020906009020160040154341015610ca7576040517f08c379a0000000000000000000000000000000000000000000000000000000008152600401610c9e90612613565b60405180910390fd5b60028481548110610cbb57610cba612135565b5b9060005260206000209060090201600601543411610d0e576040517f08c379a0000000000000000000000000000000000000000000000000000000008152600401610d059061267f565b60405180910390fd5b60028481548110610d2257610d21612135565b5b906000526020600020906009020160010160009054906101000a900473ffffffffffffffffffffffffffffffffffffffff1673ffffffffffffffffffffffffffffffffffffffff163373ffffffffffffffffffffffffffffffffffffffff161415610dc2576040517f08c379a0000000000000000000000000000000000000000000000000000000008152600401610db990612711565b60405180910390fd5b600060028581548110610dd857610dd7612135565b5b90600052602060002090600902016006015414610eb05760028481548110610e0357610e02612135565b5b9060005260206000209060090201600601546001600060028781548110610e2d57610e2c612135565b5b906000526020600020906009020160050160009054906101000a900473ffffffffffffffffffffffffffffffffffffffff1673ffffffffffffffffffffffffffffffffffffffff1673ffffffffffffffffffffffffffffffffffffffff1681526020019081526020016000206000828254610ea89190612760565b925050819055505b3360028581548110610ec557610ec4612135565b5b906000526020600020906009020160050160006101000a81548173ffffffffffffffffffffffffffffffffffffffff021916908373ffffffffffffffffffffffffffffffffffffffff1602179055503460028581548110610f2957610f28612135565b5b90600052602060002090600902016006018190555060028481548110610f5257610f51612135565b5b906000526020600020906009020160070160019054906101000a900460ff16610fb457600160028581548110610f8b57610f8a612135565b5b906000526020600020906009020160070160016101000a81548160ff0219169083151502179055505b60028481548110610fc857610fc7612135565b5b90600052602060002090600902016008016001816001815401808255809150500390600052602060002090505060006002858154811061100b5761100a612135565b5b9060005260206000209060090201600801805490509050336002868154811061103757611036612135565b5b906000526020600020906009020160080160018361105591906127b6565b8154811061106657611065612135565b5b906000526020600020906002020160000160006101000a81548173ffffffffffffffffffffffffffffffffffffffff021916908373ffffffffffffffffffffffffffffffffffffffff16021790555034600286815481106110ca576110c9612135565b5b90600052602060002090600902016008016001836110e891906127b6565b815481106110f9576110f8612135565b5b9060005260206000209060020201600101819055507fda0a18da71d8ebd145966339a728fc0d8ccc07c22870d561890d823c515dda6b85333460405161114193929190612426565b60405180910390a15050505050565b6002818154811061116057600080fd5b90600052602060002090600902016000915090508060000154908060010160009054906101000a900473ffffffffffffffffffffffffffffffffffffffff16908060020154908060030154908060040154908060050160009054906101000a900473ffffffffffffffffffffffffffffffffffffffff16908060060154908060070160009054906101000a900460ff16908060070160019054906101000a900460ff16905089565b60606002805480602002602001604051908101604052809291908181526020016000905b82821015611432578382906000526020600020906009020160405180610140016040529081600082015481526020016001820160009054906101000a900473ffffffffffffffffffffffffffffffffffffffff1673ffffffffffffffffffffffffffffffffffffffff1673ffffffffffffffffffffffffffffffffffffffff1681526020016002820154815260200160038201548152602001600482015481526020016005820160009054906101000a900473ffffffffffffffffffffffffffffffffffffffff1673ffffffffffffffffffffffffffffffffffffffff1673ffffffffffffffffffffffffffffffffffffffff168152602001600682015481526020016007820160009054906101000a900460ff161515151581526020016007820160019054906101000a900460ff1615151515815260200160088201805480602002602001604051908101604052809291908181526020016000905b8282101561141b57838290600052602060002090600202016040518060400160405290816000820160009054906101000a900473ffffffffffffffffffffffffffffffffffffffff1673ffffffffffffffffffffffffffffffffffffffff1673ffffffffffffffffffffffffffffffffffffffff16815260200160018201548152505081526020019060010190611389565b50505050815250508152602001906001019061122c565b50505050905090565b8060028054905081108015611474575080600282815481106114605761145f612135565b5b906000526020600020906009020160000154145b6114b3576040517f08c379a00000000000000000000000000000000000000000000000000000000081526004016114aa906121c1565b60405180910390fd5b81600281815481106114c8576114c7612135565b5b906000526020600020906009020160030154421161151b576040517f08c379a00000000000000000000000000000000000000000000000000000000081526004016115129061222d565b60405180910390fd5b82600281815481106115305761152f612135565b5b906000526020600020906009020160070160019054906101000a900460ff161561158f576040517f08c379a000000000000000000000000000000000000000000000000000000000815260040161158690612836565b60405180910390fd5b600284815481106115a3576115a2612135565b5b9060005260206000209060090201600201543073ffffffffffffffffffffffffffffffffffffffff1660008054906101000a900473ffffffffffffffffffffffffffffffffffffffff1673ffffffffffffffffffffffffffffffffffffffff1663081812fc836040518263ffffffff1660e01b81526004016116259190611ca3565b60206040518083038186803b15801561163d57600080fd5b505afa158015611651573d6000803e3d6000fd5b505050506040513d601f19601f8201168201806040525081019061167591906122ce565b73ffffffffffffffffffffffffffffffffffffffff16146116cb576040517f08c379a00000000000000000000000000000000000000000000000000000000081526004016116c290612347565b60405180910390fd5b6001600286815481106116e1576116e0612135565b5b906000526020600020906009020160070160006101000a81548160ff0219169083151502179055506000600360006002888154811061172357611722612135565b5b906000526020600020906009020160020154815260200190815260200160002060006101000a81548160ff0219169083151502179055505050505050565b60036020528060005260406000206000915054906101000a900460ff1681565b6000833373ffffffffffffffffffffffffffffffffffffffff1660008054906101000a900473ffffffffffffffffffffffffffffffffffffffff1673ffffffffffffffffffffffffffffffffffffffff16636352211e836040518263ffffffff1660e01b81526004016117f49190611ca3565b60206040518083038186803b15801561180c57600080fd5b505afa158015611820573d6000803e3d6000fd5b505050506040513d601f19601f8201168201806040525081019061184491906122ce565b73ffffffffffffffffffffffffffffffffffffffff161461189a576040517f08c379a0000000000000000000000000000000000000000000000000000000008152600401611891906128a2565b60405180910390fd5b6003600086815260200190815260200160002060009054906101000a900460ff16156118fb576040517f08c379a00000000000000000000000000000000000000000000000000000000081526004016118f290612934565b60405180910390fd5b60006002805490509050600260018160018154018082558091505003906000526020600020905050806002828154811061193857611937612135565b5b906000526020600020906009020160000181905550336002828154811061196257611961612135565b5b906000526020600020906009020160010160006101000a81548173ffffffffffffffffffffffffffffffffffffffff021916908373ffffffffffffffffffffffffffffffffffffffff16021790555085600282815481106119c6576119c5612135565b5b90600052602060002090600902016002018190555084426119e79190612760565b600282815481106119fb576119fa612135565b5b9060005260206000209060090201600301819055508360028281548110611a2557611a24612135565b5b9060005260206000209060090201600401819055503360028281548110611a4f57611a4e612135565b5b906000526020600020906009020160050160006101000a81548173ffffffffffffffffffffffffffffffffffffffff021916908373ffffffffffffffffffffffffffffffffffffffff160217905550600060028281548110611ab457611ab3612135565b5b906000526020600020906009020160060181905550600060028281548110611adf57611ade612135565b5b906000526020600020906009020160070160006101000a81548160ff021916908315150217905550600060028281548110611b1d57611b1c612135565b5b906000526020600020906009020160070160016101000a81548160ff02191690831515021790555060016003600088815260200190815260200160002060006101000a81548160ff0219169083151502179055508060028281548110611b8657611b85612135565b5b90600052602060002090600902016000015414611ba657611ba5612954565b5b7f055a994bb5d755ce90191cdaaa646680575578f6d98cb0f72a4be4fff5f763be81878742611bd59190612760565b87604051611be69493929190612983565b60405180910390a180925050509392505050565b600080fd5b600073ffffffffffffffffffffffffffffffffffffffff82169050919050565b6000611c2a82611bff565b9050919050565b611c3a81611c1f565b8114611c4557600080fd5b50565b600081359050611c5781611c31565b92915050565b600060208284031215611c7357611c72611bfa565b5b6000611c8184828501611c48565b91505092915050565b6000819050919050565b611c9d81611c8a565b82525050565b6000602082019050611cb86000830184611c94565b92915050565b611cc781611c8a565b8114611cd257600080fd5b50565b600081359050611ce481611cbe565b92915050565b600060208284031215611d0057611cff611bfa565b5b6000611d0e84828501611cd5565b91505092915050565b60008115159050919050565b611d2c81611d17565b82525050565b6000602082019050611d476000830184611d23565b92915050565b6000611d5882611bff565b9050919050565b611d6881611d4d565b82525050565b611d7781611c1f565b82525050565b600061012082019050611d93600083018c611c94565b611da0602083018b611d5f565b611dad604083018a611c94565b611dba6060830189611c94565b611dc76080830188611c94565b611dd460a0830187611d6e565b611de160c0830186611c94565b611dee60e0830185611d23565b611dfc610100830184611d23565b9a9950505050505050505050565b600081519050919050565b600082825260208201905092915050565b6000819050602082019050919050565b611e3f81611c8a565b82525050565b611e4e81611d4d565b82525050565b611e5d81611c1f565b82525050565b611e6c81611d17565b82525050565b600081519050919050565b600082825260208201905092915050565b6000819050602082019050919050565b604082016000820151611eb46000850182611e54565b506020820151611ec76020850182611e36565b50505050565b6000611ed98383611e9e565b60408301905092915050565b6000602082019050919050565b6000611efd82611e72565b611f078185611e7d565b9350611f1283611e8e565b8060005b83811015611f43578151611f2a8882611ecd565b9750611f3583611ee5565b925050600181019050611f16565b5085935050505092915050565b600061014083016000830151611f696000860182611e36565b506020830151611f7c6020860182611e45565b506040830151611f8f6040860182611e36565b506060830151611fa26060860182611e36565b506080830151611fb56080860182611e36565b5060a0830151611fc860a0860182611e54565b5060c0830151611fdb60c0860182611e36565b5060e0830151611fee60e0860182611e63565b50610100830151612003610100860182611e63565b5061012083015184820361012086015261201d8282611ef2565b9150508091505092915050565b60006120368383611f50565b905092915050565b6000602082019050919050565b600061205682611e0a565b6120608185611e15565b93508360208202850161207285611e26565b8060005b858110156120ae578484038952815161208f858261202a565b945061209a8361203e565b925060208a01995050600181019050612076565b50829750879550505050505092915050565b600060208201905081810360008301526120da818461204b565b905092915050565b6000806000606084860312156120fb576120fa611bfa565b5b600061210986828701611cd5565b935050602061211a86828701611cd5565b925050604061212b86828701611cd5565b9150509250925092565b7f4e487b7100000000000000000000000000000000000000000000000000000000600052603260045260246000fd5b600082825260208201905092915050565b7f436f756c64206e6f742066696e64206974656d00000000000000000000000000600082015250565b60006121ab601383612164565b91506121b682612175565b602082019050919050565b600060208201905081810360008301526121da8161219e565b9050919050565b7f41756374696f6e206861736e27742066696e6973686564207965742e00000000600082015250565b6000612217601c83612164565b9150612222826121e1565b602082019050919050565b600060208201905081810360008301526122468161220a565b9050919050565b7f596f752063616e6e6f7420636c61696d20746865206e66742e00000000000000600082015250565b6000612283601983612164565b915061228e8261224d565b602082019050919050565b600060208201905081810360008301526122b281612276565b9050919050565b6000815190506122c881611c31565b92915050565b6000602082840312156122e4576122e3611bfa565b5b60006122f2848285016122b9565b91505092915050565b7f41756374696f6e206973206e6f7420617070726f766564000000000000000000600082015250565b6000612331601783612164565b915061233c826122fb565b602082019050919050565b6000602082019050818103600083015261236081612324565b9050919050565b6000819050919050565b600061238c61238761238284611bff565b612367565b611bff565b9050919050565b600061239e82612371565b9050919050565b60006123b082612393565b9050919050565b6123c0816123a5565b82525050565b60006060820190506123db60008301866123b7565b6123e86020830185611d6e565b6123f56040830184611c94565b949350505050565b60006040820190506124126000830185611c94565b61241f6020830184611d6e565b9392505050565b600060608201905061243b6000830186611c94565b6124486020830185611d6e565b6124556040830184611c94565b949350505050565b7f596f752068617665206e6f206d6f6e657920746f2077697468647261772e0000600082015250565b6000612493601e83612164565b915061249e8261245d565b602082019050919050565b600060208201905081810360008301526124c281612486565b9050919050565b7f416374696f6e206973206f766572000000000000000000000000000000000000600082015250565b60006124ff600e83612164565b915061250a826124c9565b602082019050919050565b6000602082019050818103600083015261252e816124f2565b9050919050565b7f41756374696f6e2074696d65206973206f7665722e0000000000000000000000600082015250565b600061256b601583612164565b915061257682612535565b602082019050919050565b6000602082019050818103600083015261259a8161255e565b9050919050565b7f596f7572206269642069732062656c6f7720746865207374617274696e67207060008201527f726963652e000000000000000000000000000000000000000000000000000000602082015250565b60006125fd602583612164565b9150612608826125a1565b604082019050919050565b6000602082019050818103600083015261262c816125f0565b9050919050565b7f546865726520616c7265616479206973206120686967686572206269642e0000600082015250565b6000612669601e83612164565b915061267482612633565b602082019050919050565b600060208201905081810360008301526126988161265c565b9050919050565b7f596f752063616e6e6f742062696420696e207468652061756374696f6e20796f60008201527f7520696e6974696174652e000000000000000000000000000000000000000000602082015250565b60006126fb602b83612164565b91506127068261269f565b604082019050919050565b6000602082019050818103600083015261272a816126ee565b9050919050565b7f4e487b7100000000000000000000000000000000000000000000000000000000600052601160045260246000fd5b600061276b82611c8a565b915061277683611c8a565b9250827fffffffffffffffffffffffffffffffffffffffffffffffffffffffffffffffff038211156127ab576127aa612731565b5b828201905092915050565b60006127c182611c8a565b91506127cc83611c8a565b9250828210156127df576127de612731565b5b828203905092915050565b7f596f752063616e6e6f7420666574636820746865206e66742e00000000000000600082015250565b6000612820601983612164565b915061282b826127ea565b602082019050919050565b6000602082019050818103600083015261284f81612813565b9050919050565b7f53656e64657220646f6573206e6f74206f776e20746865206974656d00000000600082015250565b600061288c601c83612164565b915061289782612856565b602082019050919050565b600060208201905081810360008301526128bb8161287f565b9050919050565b7f54686973206e667420697320616c72656164792070757420757020666f72206160008201527f756374696f6e6564000000000000000000000000000000000000000000000000602082015250565b600061291e602883612164565b9150612929826128c2565b604082019050919050565b6000602082019050818103600083015261294d81612911565b9050919050565b7f4e487b7100000000000000000000000000000000000000000000000000000000600052600160045260246000fd5b60006080820190506129986000830187611c94565b6129a56020830186611c94565b6129b26040830185611c94565b6129bf6060830184611c94565b9594505050505056fea2646970667358221220a33614cc2fe1e0e0181090067335262bde3594d496e63c32227be4dc4db44f6564736f6c63430008090033",
  "immutableReferences": {},
  "source": "// SPDX-License-Identifier: MIT\npragma solidity >=0.8.0 <0.9.0;\nimport \"./nft.sol\";\n\ncontract Auction {\n    // nft\n    nft private nftset;\n\n    // \n    struct AuctionItem {   \n        // uid\n        uint256 id;\n        // \n        address payable beneficiary; //\n        uint256 tokenId;             // NFT id   \n        uint auctionEnd;             // \n        uint startPrice;             // \n        // \n        address highestBidder;   //\n        uint highestBid;         //\n        bool ended;              //  true\n        bool haveBid;            //  true  \n        bidhistory[] bidhis;\n        \n    } \n\n    //(HighestBidIncreased) \n    struct bidhistory {\n        address bidder;      //\n        uint bid;            //       \n    }\n    //\n    mapping(address => uint) public pendingReturns;   \n    AuctionItem[] public aucItem;\n    mapping(uint256 => bool) public activeItems;\n\n    // \n    event AuctionAdded(uint256 id, uint256 tokenId, uint auctionEnd, uint startPrice);\n    event HighestBidIncreased(uint256 id, address bidder, uint amount);\n    event AuctionEnded(uint256 id, address winner, uint amount);\n\n    constructor(nft _nftset) {\n        nftset = _nftset;\n    }\n\n    modifier OnlyOwner(uint256 tokenId) {\n        require(nftset.ownerOf(tokenId) == msg.sender, \"Sender does not own the item\");\n        _;\n    }\n\n    modifier HasTransferApproval(uint256 tokenId) {\n        require(nftset.getApproved(tokenId) == address(this), \"Auction is not approved\");\n        _;\n    }\n    //modifier HasTransferApproval(uint256 tokenId) {\n    //    require(nftset.getApproved(tokenId) == msg.sender, \"Auction is not approved\");\n    //    _;\n    //}\n\n    modifier ItemExists(uint256 id) {\n        require(id < aucItem.length && aucItem[id].id == id, \"Could not find item\");\n        _;\n    }\n\n    modifier IsActive(uint256 id) {\n        require(block.timestamp <= aucItem[id].auctionEnd, \"Auction time is over.\");\n        _;\n    }\n    modifier IsnotActive(uint256 id) {\n        require(block.timestamp > aucItem[id].auctionEnd, \"Auction hasn't finished yet.\");\n        _;\n    }\n    modifier IsNotEnded(uint256 id) {\n        require(!aucItem[id].ended, \"Action is over\");\n        _;\n    }\n    modifier AbleFetch(uint256 id) {\n        require(!aucItem[id].haveBid, \"You cannot fetch the nft.\");\n        _;\n    }\n\n    modifier AbleClaim(uint256 id) {\n        require(\n            aucItem[id].haveBid && aucItem[id].highestBidder == msg.sender, \n            \"You cannot claim the nft.\"\n        );\n        _;\n    }\n\n\n    ///  id  `_tokenId`  NFT \n    ///  `_biddingTime` \n    ///  `_startPrice`\n    function AuctionAdd(uint256 _tokenId, uint _biddingTime, uint _startPrice) \n        OnlyOwner(_tokenId)        \n        ///HasTransferApproval(tokenId)\n        external\n        returns (uint256) {\n            require(!activeItems[_tokenId], \"This nft is already put up for auctioned\");\n            uint256 newId = aucItem.length;\n            aucItem.push();\n            aucItem[newId].id = newId;\n            aucItem[newId].beneficiary = payable(msg.sender);\n            aucItem[newId].tokenId = _tokenId;\n            aucItem[newId].auctionEnd = block.timestamp + _biddingTime;\n            aucItem[newId].startPrice = _startPrice;\n            aucItem[newId].highestBidder = msg.sender;  \n            aucItem[newId].highestBid = 0;\n            aucItem[newId].ended = false; \n            aucItem[newId].haveBid = false;\n            \n            activeItems[_tokenId] = true;\n\n            assert(aucItem[newId].id == newId);\n            emit AuctionAdded(newId, _tokenId, block.timestamp + _biddingTime, _startPrice);\n            return newId;\n            \n        }\n\n    /// \n    /// \n    function bid(uint256 id) \n        ItemExists(id)\n        IsNotEnded(id)\n        IsActive(id)\n        ///HasTransferApproval(aucItem[id].tokenId)\n        payable \n        external {\n\n            // \n            require(\n                msg.value >= aucItem[id].startPrice, \n                \"Your bid is below the starting price.\"\n            );      \n            // \n            require(\n                msg.value > aucItem[id].highestBid,\n                \"There already is a higher bid.\"\n            );\n            // \n            require(\n                msg.sender != aucItem[id].beneficiary,\n                \"You cannot bid in the auction you initiate.\"\n            );\n\n            if (aucItem[id].highestBid != 0) {\n                //  highestBidder.send(highestBid) \n                // \n                // \n                pendingReturns[aucItem[id].highestBidder] += aucItem[id].highestBid;\n            }\n            aucItem[id].highestBidder = msg.sender;\n            aucItem[id].highestBid = msg.value;\n            if (!aucItem[id].haveBid)\n                aucItem[id].haveBid = true;\n            \n            aucItem[id].bidhis.push();\n            uint len = aucItem[id].bidhis.length;\n            aucItem[id].bidhis[len - 1].bidder = msg.sender;\n            aucItem[id].bidhis[len - 1].bid = msg.value;\n            //aucItem[id].beneficiary.transfer(msg.value);\n\n            emit HighestBidIncreased(id, msg.sender, msg.value);\n        }\n\n    /// \n    function withdraw() \n    external\n    returns (bool) {\n        require(\n            pendingReturns[msg.sender] > 0, \n            \"You have no money to withdraw.\"\n        );\n        uint amount = pendingReturns[msg.sender];\n        bool isReturned;\n        \n        pendingReturns[msg.sender] = 0;\n        isReturned = (payable(msg.sender)).send(amount);\n        if (!isReturned) {\n            // \n            pendingReturns[msg.sender] = amount;\n            return false;\n        }\n        return true;\n    }\n\n    function fetch(uint256 id)\n    ItemExists(id)\n    IsnotActive(id)\n    AbleFetch(id)\n    HasTransferApproval(aucItem[id].tokenId)\n    external {\n        aucItem[id].ended = true;\n        activeItems[aucItem[id].tokenId] = false;        \n    }\n\n\n    function claim(uint256 id)\n    ItemExists(id)\n    IsnotActive(id)\n    AbleClaim(id)\n    HasTransferApproval(aucItem[id].tokenId)\n    external {\n        aucItem[id].ended = true;\n        activeItems[aucItem[id].tokenId] = false; \n        nftset.safeTransferFrom(aucItem[id].beneficiary, msg.sender, aucItem[id].tokenId);\n        nftset.ownerchange(aucItem[id].tokenId, msg.sender);\n        aucItem[id].beneficiary.transfer(aucItem[id].highestBid);\n        emit AuctionEnded(id, aucItem[id].highestBidder, aucItem[id].highestBid);          \n    }\n\n    function totalForAuction() external view returns(uint256) {\n        return aucItem.length;\n    }\n\n    function getallauction() external returns(AuctionItem[] memory) {\n        return aucItem;\n    } \n\n}",
  "sourcePath": "D:\\Code\\code_truffle\\xkl\\contracts\\Auction.sol",
  "compiler": {
    "name": "solc",
    "version": "0.8.9+commit.e5eed63a.Emscripten.clang"
  },
  "schemaVersion": "3.4.3",
  "updatedAt": "2021-11-06T10:17:44.904Z",
  "networkType": "ethereum",
  "devdoc": {
    "kind": "dev",
    "methods": {},
    "version": 1
  },
  "userdoc": {
    "kind": "user",
    "methods": {
      "AuctionAdd(uint256,uint256,uint256)": {
        "notice": " id  `_tokenId`  NFT   `_biddingTime`   `_startPrice`"
      },
      "bid(uint256)": {
        "notice": " "
      },
      "withdraw()": {
        "notice": ""
      }
    },
    "version": 1
  }
}