{
  "contractName": "nft",
  "abi": [
    {
      "inputs": [],
      "stateMutability": "nonpayable",
      "type": "constructor"
    },
    {
      "anonymous": false,
      "inputs": [
        {
          "indexed": true,
          "internalType": "address",
          "name": "owner",
          "type": "address"
        },
        {
          "indexed": true,
          "internalType": "address",
          "name": "approved",
          "type": "address"
        },
        {
          "indexed": true,
          "internalType": "uint256",
          "name": "tokenId",
          "type": "uint256"
        }
      ],
      "name": "Approval",
      "type": "event"
    },
    {
      "anonymous": false,
      "inputs": [
        {
          "indexed": true,
          "internalType": "address",
          "name": "owner",
          "type": "address"
        },
        {
          "indexed": true,
          "internalType": "address",
          "name": "operator",
          "type": "address"
        },
        {
          "indexed": false,
          "internalType": "bool",
          "name": "approved",
          "type": "bool"
        }
      ],
      "name": "ApprovalForAll",
      "type": "event"
    },
    {
      "anonymous": false,
      "inputs": [
        {
          "indexed": true,
          "internalType": "address",
          "name": "from",
          "type": "address"
        },
        {
          "indexed": true,
          "internalType": "address",
          "name": "to",
          "type": "address"
        },
        {
          "indexed": true,
          "internalType": "uint256",
          "name": "tokenId",
          "type": "uint256"
        }
      ],
      "name": "Transfer",
      "type": "event"
    },
    {
      "inputs": [
        {
          "internalType": "address",
          "name": "to",
          "type": "address"
        },
        {
          "internalType": "uint256",
          "name": "tokenId",
          "type": "uint256"
        }
      ],
      "name": "approve",
      "outputs": [],
      "stateMutability": "nonpayable",
      "type": "function"
    },
    {
      "inputs": [],
      "name": "auctionplace",
      "outputs": [
        {
          "internalType": "address",
          "name": "",
          "type": "address"
        }
      ],
      "stateMutability": "view",
      "type": "function",
      "constant": true
    },
    {
      "inputs": [
        {
          "internalType": "address",
          "name": "owner",
          "type": "address"
        }
      ],
      "name": "balanceOf",
      "outputs": [
        {
          "internalType": "uint256",
          "name": "",
          "type": "uint256"
        }
      ],
      "stateMutability": "view",
      "type": "function",
      "constant": true
    },
    {
      "inputs": [
        {
          "internalType": "uint256",
          "name": "tokenId",
          "type": "uint256"
        }
      ],
      "name": "getApproved",
      "outputs": [
        {
          "internalType": "address",
          "name": "",
          "type": "address"
        }
      ],
      "stateMutability": "view",
      "type": "function",
      "constant": true
    },
    {
      "inputs": [
        {
          "internalType": "address",
          "name": "owner",
          "type": "address"
        },
        {
          "internalType": "address",
          "name": "operator",
          "type": "address"
        }
      ],
      "name": "isApprovedForAll",
      "outputs": [
        {
          "internalType": "bool",
          "name": "",
          "type": "bool"
        }
      ],
      "stateMutability": "view",
      "type": "function",
      "constant": true
    },
    {
      "inputs": [],
      "name": "name",
      "outputs": [
        {
          "internalType": "string",
          "name": "",
          "type": "string"
        }
      ],
      "stateMutability": "view",
      "type": "function",
      "constant": true
    },
    {
      "inputs": [
        {
          "internalType": "uint256",
          "name": "",
          "type": "uint256"
        }
      ],
      "name": "nftItems",
      "outputs": [
        {
          "internalType": "uint256",
          "name": "id",
          "type": "uint256"
        },
        {
          "internalType": "string",
          "name": "name",
          "type": "string"
        },
        {
          "internalType": "string",
          "name": "description",
          "type": "string"
        },
        {
          "internalType": "address",
          "name": "creator",
          "type": "address"
        },
        {
          "internalType": "string",
          "name": "hash",
          "type": "string"
        }
      ],
      "stateMutability": "view",
      "type": "function",
      "constant": true
    },
    {
      "inputs": [
        {
          "internalType": "uint256",
          "name": "tokenId",
          "type": "uint256"
        }
      ],
      "name": "ownerOf",
      "outputs": [
        {
          "internalType": "address",
          "name": "",
          "type": "address"
        }
      ],
      "stateMutability": "view",
      "type": "function",
      "constant": true
    },
    {
      "inputs": [
        {
          "internalType": "address",
          "name": "from",
          "type": "address"
        },
        {
          "internalType": "address",
          "name": "to",
          "type": "address"
        },
        {
          "internalType": "uint256",
          "name": "tokenId",
          "type": "uint256"
        }
      ],
      "name": "safeTransferFrom",
      "outputs": [],
      "stateMutability": "nonpayable",
      "type": "function"
    },
    {
      "inputs": [
        {
          "internalType": "address",
          "name": "from",
          "type": "address"
        },
        {
          "internalType": "address",
          "name": "to",
          "type": "address"
        },
        {
          "internalType": "uint256",
          "name": "tokenId",
          "type": "uint256"
        },
        {
          "internalType": "bytes",
          "name": "_data",
          "type": "bytes"
        }
      ],
      "name": "safeTransferFrom",
      "outputs": [],
      "stateMutability": "nonpayable",
      "type": "function"
    },
    {
      "inputs": [
        {
          "internalType": "address",
          "name": "operator",
          "type": "address"
        },
        {
          "internalType": "bool",
          "name": "approved",
          "type": "bool"
        }
      ],
      "name": "setApprovalForAll",
      "outputs": [],
      "stateMutability": "nonpayable",
      "type": "function"
    },
    {
      "inputs": [
        {
          "internalType": "bytes4",
          "name": "interfaceId",
          "type": "bytes4"
        }
      ],
      "name": "supportsInterface",
      "outputs": [
        {
          "internalType": "bool",
          "name": "",
          "type": "bool"
        }
      ],
      "stateMutability": "view",
      "type": "function",
      "constant": true
    },
    {
      "inputs": [],
      "name": "symbol",
      "outputs": [
        {
          "internalType": "string",
          "name": "",
          "type": "string"
        }
      ],
      "stateMutability": "view",
      "type": "function",
      "constant": true
    },
    {
      "inputs": [
        {
          "internalType": "uint256",
          "name": "index",
          "type": "uint256"
        }
      ],
      "name": "tokenByIndex",
      "outputs": [
        {
          "internalType": "uint256",
          "name": "",
          "type": "uint256"
        }
      ],
      "stateMutability": "view",
      "type": "function",
      "constant": true
    },
    {
      "inputs": [
        {
          "internalType": "address",
          "name": "owner",
          "type": "address"
        },
        {
          "internalType": "uint256",
          "name": "index",
          "type": "uint256"
        }
      ],
      "name": "tokenOfOwnerByIndex",
      "outputs": [
        {
          "internalType": "uint256",
          "name": "",
          "type": "uint256"
        }
      ],
      "stateMutability": "view",
      "type": "function",
      "constant": true
    },
    {
      "inputs": [
        {
          "internalType": "uint256",
          "name": "tokenId",
          "type": "uint256"
        }
      ],
      "name": "tokenURI",
      "outputs": [
        {
          "internalType": "string",
          "name": "",
          "type": "string"
        }
      ],
      "stateMutability": "view",
      "type": "function",
      "constant": true
    },
    {
      "inputs": [],
      "name": "totalSupply",
      "outputs": [
        {
          "internalType": "uint256",
          "name": "",
          "type": "uint256"
        }
      ],
      "stateMutability": "view",
      "type": "function",
      "constant": true
    },
    {
      "inputs": [
        {
          "internalType": "address",
          "name": "from",
          "type": "address"
        },
        {
          "internalType": "address",
          "name": "to",
          "type": "address"
        },
        {
          "internalType": "uint256",
          "name": "tokenId",
          "type": "uint256"
        }
      ],
      "name": "transferFrom",
      "outputs": [],
      "stateMutability": "nonpayable",
      "type": "function"
    },
    {
      "inputs": [
        {
          "internalType": "string",
          "name": "hash",
          "type": "string"
        },
        {
          "internalType": "string",
          "name": "name",
          "type": "string"
        },
        {
          "internalType": "string",
          "name": "description",
          "type": "string"
        }
      ],
      "name": "mint",
      "outputs": [
        {
          "internalType": "uint256",
          "name": "",
          "type": "uint256"
        }
      ],
      "stateMutability": "nonpayable",
      "type": "function"
    },
    {
      "inputs": [
        {
          "internalType": "address",
          "name": "auction",
          "type": "address"
        }
      ],
      "name": "setAuctionplace",
      "outputs": [],
      "stateMutability": "nonpayable",
      "type": "function"
    },
    {
      "inputs": [
        {
          "internalType": "uint256",
          "name": "id",
          "type": "uint256"
        },
        {
          "internalType": "address",
          "name": "newowner",
          "type": "address"
        }
      ],
      "name": "ownerchange",
      "outputs": [],
      "stateMutability": "nonpayable",
      "type": "function"
    },
    {
      "inputs": [],
      "name": "getallnft",
      "outputs": [
        {
          "components": [
            {
              "internalType": "uint256",
              "name": "id",
              "type": "uint256"
            },
            {
              "internalType": "string",
              "name": "name",
              "type": "string"
            },
            {
              "internalType": "string",
              "name": "description",
              "type": "string"
            },
            {
              "internalType": "address",
              "name": "creator",
              "type": "address"
            },
            {
              "internalType": "string",
              "name": "hash",
              "type": "string"
            },
            {
              "components": [
                {
                  "internalType": "uint256",
                  "name": "owntime",
                  "type": "uint256"
                },
                {
                  "internalType": "address",
                  "name": "owner",
                  "type": "address"
                }
              ],
              "internalType": "struct nft.history[]",
              "name": "his",
              "type": "tuple[]"
            }
          ],
          "internalType": "struct nft.nftItem[]",
          "name": "",
          "type": "tuple[]"
        }
      ],
      "stateMutability": "nonpayable",
      "type": "function"
    }
  ],
  "bytecode": "0x60806040523480156200001157600080fd5b506040518060400160405280600381526020017f6e667400000000000000000000000000000000000000000000000000000000008152506040518060400160405280600381526020017f4e46540000000000000000000000000000000000000000000000000000000000815250816000908051906020019062000096929190620000d6565b508060019080519060200190620000af929190620000d6565b505050600c60018160018154018082558091505003906000526020600020905050620001eb565b828054620000e490620001b5565b90600052602060002090601f01602090048101928262000108576000855562000154565b82601f106200012357805160ff191683800117855562000154565b8280016001018555821562000154579182015b828111156200015357825182559160200191906001019062000136565b5b50905062000163919062000167565b5090565b5b808211156200018257600081600090555060010162000168565b5090565b7f4e487b7100000000000000000000000000000000000000000000000000000000600052602260045260246000fd5b60006002820490506001821680620001ce57607f821691505b60208210811415620001e557620001e462000186565b5b50919050565b613ec480620001fb6000396000f3fe608060405234801561001057600080fd5b50600436106101425760003560e01c806362821396116100b8578063ac9255791161007c578063ac9255791461039f578063b88d4fde146103bd578063c87b56dd146103d9578063d645ddf614610409578063e985e9c514610439578063eda5e5fc1461046957610142565b806362821396146102d15780636352211e1461030557806370a082311461033557806395d89b4114610365578063a22cb4651461038357610142565b806323b872dd1161010a57806323b872dd146101ff5780632f745c591461021b5780633ef065d61461024b57806342842e0e1461026957806345df4514146102855780634f6ccce7146102a157610142565b806301ffc9a71461014757806306fdde0314610177578063081812fc14610195578063095ea7b3146101c557806318160ddd146101e1575b600080fd5b610161600480360381019061015c9190612870565b610485565b60405161016e91906128b8565b60405180910390f35b61017f6104ff565b60405161018c919061296c565b60405180910390f35b6101af60048036038101906101aa91906129c4565b610591565b6040516101bc9190612a32565b60405180910390f35b6101df60048036038101906101da9190612a79565b610616565b005b6101e961072e565b6040516101f69190612ac8565b60405180910390f35b61021960048036038101906102149190612ae3565b61073b565b005b61023560048036038101906102309190612a79565b61079b565b6040516102429190612ac8565b60405180910390f35b610253610840565b6040516102609190612a32565b60405180910390f35b610283600480360381019061027e9190612ae3565b610866565b005b61029f600480360381019061029a9190612b36565b610886565b005b6102bb60048036038101906102b691906129c4565b6109e5565b6040516102c89190612ac8565b60405180910390f35b6102eb60048036038101906102e691906129c4565b610a56565b6040516102fc959493929190612b76565b60405180910390f35b61031f600480360381019061031a91906129c4565b610c54565b60405161032c9190612a32565b60405180910390f35b61034f600480360381019061034a9190612bde565b610d06565b60405161035c9190612ac8565b60405180910390f35b61036d610dbe565b60405161037a919061296c565b60405180910390f35b61039d60048036038101906103989190612c37565b610e50565b005b6103a7610fd1565b6040516103b49190612f1d565b60405180910390f35b6103d760048036038101906103d29190613074565b611305565b005b6103f360048036038101906103ee91906129c4565b611367565b604051610400919061296c565b60405180910390f35b610423600480360381019061041e9190613157565b61140e565b6040516104309190612ac8565b60405180910390f35b610453600480360381019061044e919061320b565b6116ce565b60405161046091906128b8565b60405180910390f35b610483600480360381019061047e9190612bde565b611762565b005b60007f780e9d63000000000000000000000000000000000000000000000000000000007bffffffffffffffffffffffffffffffffffffffffffffffffffffffff1916827bffffffffffffffffffffffffffffffffffffffffffffffffffffffff191614806104f857506104f7826117a6565b5b9050919050565b60606000805461050e9061327a565b80601f016020809104026020016040519081016040528092919081815260200182805461053a9061327a565b80156105875780601f1061055c57610100808354040283529160200191610587565b820191906000526020600020905b81548152906001019060200180831161056a57829003601f168201915b5050505050905090565b600061059c82611888565b6105db576040517f08c379a00000000000000000000000000000000000000000000000000000000081526004016105d29061331e565b60405180910390fd5b6004600083815260200190815260200160002060009054906101000a900473ffffffffffffffffffffffffffffffffffffffff169050919050565b600061062182610c54565b90508073ffffffffffffffffffffffffffffffffffffffff168373ffffffffffffffffffffffffffffffffffffffff161415610692576040517f08c379a0000000000000000000000000000000000000000000000000000000008152600401610689906133b0565b60405180910390fd5b8073ffffffffffffffffffffffffffffffffffffffff166106b16118f4565b73ffffffffffffffffffffffffffffffffffffffff1614806106e057506106df816106da6118f4565b6116ce565b5b61071f576040517f08c379a000000000000000000000000000000000000000000000000000000000815260040161071690613442565b60405180910390fd5b61072983836118fc565b505050565b6000600880549050905090565b61074c6107466118f4565b826119b5565b61078b576040517f08c379a0000000000000000000000000000000000000000000000000000000008152600401610782906134d4565b60405180910390fd5b610796838383611a93565b505050565b60006107a683610d06565b82106107e7576040517f08c379a00000000000000000000000000000000000000000000000000000000081526004016107de90613566565b60405180910390fd5b600660008473ffffffffffffffffffffffffffffffffffffffff1673ffffffffffffffffffffffffffffffffffffffff168152602001908152602001600020600083815260200190815260200160002054905092915050565b600b60009054906101000a900473ffffffffffffffffffffffffffffffffffffffff1681565b61088183838360405180602001604052806000815250611305565b505050565b600c828154811061089a57610899613586565b5b9060005260206000209060060201600501600181600181540180825580915050039060005260206000209050506000600c83815481106108dd576108dc613586565b5b906000526020600020906006020160050180549050905042600c848154811061090957610908613586565b5b906000526020600020906006020160050160018361092791906135e4565b8154811061093857610937613586565b5b90600052602060002090600202016000018190555081600c848154811061096257610961613586565b5b906000526020600020906006020160050160018361098091906135e4565b8154811061099157610990613586565b5b906000526020600020906002020160010160006101000a81548173ffffffffffffffffffffffffffffffffffffffff021916908373ffffffffffffffffffffffffffffffffffffffff160217905550505050565b60006109ef61072e565b8210610a30576040517f08c379a0000000000000000000000000000000000000000000000000000000008152600401610a279061368a565b60405180910390fd5b60088281548110610a4457610a43613586565b5b90600052602060002001549050919050565b600c8181548110610a6657600080fd5b9060005260206000209060060201600091509050806000015490806001018054610a8f9061327a565b80601f0160208091040260200160405190810160405280929190818152602001828054610abb9061327a565b8015610b085780601f10610add57610100808354040283529160200191610b08565b820191906000526020600020905b815481529060010190602001808311610aeb57829003601f168201915b505050505090806002018054610b1d9061327a565b80601f0160208091040260200160405190810160405280929190818152602001828054610b499061327a565b8015610b965780601f10610b6b57610100808354040283529160200191610b96565b820191906000526020600020905b815481529060010190602001808311610b7957829003601f168201915b5050505050908060030160009054906101000a900473ffffffffffffffffffffffffffffffffffffffff1690806004018054610bd19061327a565b80601f0160208091040260200160405190810160405280929190818152602001828054610bfd9061327a565b8015610c4a5780601f10610c1f57610100808354040283529160200191610c4a565b820191906000526020600020905b815481529060010190602001808311610c2d57829003601f168201915b5050505050905085565b6000806002600084815260200190815260200160002060009054906101000a900473ffffffffffffffffffffffffffffffffffffffff169050600073ffffffffffffffffffffffffffffffffffffffff168173ffffffffffffffffffffffffffffffffffffffff161415610cfd576040517f08c379a0000000000000000000000000000000000000000000000000000000008152600401610cf49061371c565b60405180910390fd5b80915050919050565b60008073ffffffffffffffffffffffffffffffffffffffff168273ffffffffffffffffffffffffffffffffffffffff161415610d77576040517f08c379a0000000000000000000000000000000000000000000000000000000008152600401610d6e906137ae565b60405180910390fd5b600360008373ffffffffffffffffffffffffffffffffffffffff1673ffffffffffffffffffffffffffffffffffffffff168152602001908152602001600020549050919050565b606060018054610dcd9061327a565b80601f0160208091040260200160405190810160405280929190818152602001828054610df99061327a565b8015610e465780601f10610e1b57610100808354040283529160200191610e46565b820191906000526020600020905b815481529060010190602001808311610e2957829003601f168201915b5050505050905090565b610e586118f4565b73ffffffffffffffffffffffffffffffffffffffff168273ffffffffffffffffffffffffffffffffffffffff161415610ec6576040517f08c379a0000000000000000000000000000000000000000000000000000000008152600401610ebd9061381a565b60405180910390fd5b8060056000610ed36118f4565b73ffffffffffffffffffffffffffffffffffffffff1673ffffffffffffffffffffffffffffffffffffffff16815260200190815260200160002060008473ffffffffffffffffffffffffffffffffffffffff1673ffffffffffffffffffffffffffffffffffffffff16815260200190815260200160002060006101000a81548160ff0219169083151502179055508173ffffffffffffffffffffffffffffffffffffffff16610f806118f4565b73ffffffffffffffffffffffffffffffffffffffff167f17307eab39ab6107e8899845ad3d59bd9653f200f220920489ca2b5937696c3183604051610fc591906128b8565b60405180910390a35050565b6060600c805480602002602001604051908101604052809291908181526020016000905b828210156112fc57838290600052602060002090600602016040518060c0016040529081600082015481526020016001820180546110329061327a565b80601f016020809104026020016040519081016040528092919081815260200182805461105e9061327a565b80156110ab5780601f10611080576101008083540402835291602001916110ab565b820191906000526020600020905b81548152906001019060200180831161108e57829003601f168201915b505050505081526020016002820180546110c49061327a565b80601f01602080910402602001604051908101604052809291908181526020018280546110f09061327a565b801561113d5780601f106111125761010080835404028352916020019161113d565b820191906000526020600020905b81548152906001019060200180831161112057829003601f168201915b505050505081526020016003820160009054906101000a900473ffffffffffffffffffffffffffffffffffffffff1673ffffffffffffffffffffffffffffffffffffffff1673ffffffffffffffffffffffffffffffffffffffff1681526020016004820180546111ac9061327a565b80601f01602080910402602001604051908101604052809291908181526020018280546111d89061327a565b80156112255780601f106111fa57610100808354040283529160200191611225565b820191906000526020600020905b81548152906001019060200180831161120857829003601f168201915b5050505050815260200160058201805480602002602001604051908101604052809291908181526020016000905b828210156112e55783829060005260206000209060020201604051806040016040529081600082015481526020016001820160009054906101000a900473ffffffffffffffffffffffffffffffffffffffff1673ffffffffffffffffffffffffffffffffffffffff1673ffffffffffffffffffffffffffffffffffffffff168152505081526020019060010190611253565b505050508152505081526020019060010190610ff5565b50505050905090565b6113166113106118f4565b836119b5565b611355576040517f08c379a000000000000000000000000000000000000000000000000000000000815260040161134c906134d4565b60405180910390fd5b61136184848484611cef565b50505050565b606061137282611888565b6113b1576040517f08c379a00000000000000000000000000000000000000000000000000000000081526004016113a8906138ac565b60405180910390fd5b60006113bb611d4b565b905060008151116113db5760405180602001604052806000815250611406565b806113e584611d62565b6040516020016113f6929190613908565b6040516020818303038152906040525b915050919050565b600061141a600a611ec3565b6000611426600a611ed9565b90506114323382611ee7565b61145e600b60009054906101000a900473ffffffffffffffffffffffffffffffffffffffff1682610616565b600c6001816001815401808255809150500390600052602060002090505080600c828154811061149157611490613586565b5b9060005260206000209060060201600001819055508585600c83815481106114bc576114bb613586565b5b906000526020600020906006020160010191906114da929190612761565b508383600c83815481106114f1576114f0613586565b5b9060005260206000209060060201600201919061150f929190612761565b5033600c828154811061152557611524613586565b5b906000526020600020906006020160030160006101000a81548173ffffffffffffffffffffffffffffffffffffffff021916908373ffffffffffffffffffffffffffffffffffffffff1602179055508787600c838154811061158a57611589613586565b5b906000526020600020906006020160040191906115a8929190612761565b50600c81815481106115bd576115bc613586565b5b90600052602060002090600602016005016001816001815401808255809150500390600052602060002090505042600c82815481106115ff576115fe613586565b5b906000526020600020906006020160050160008154811061162357611622613586565b5b90600052602060002090600202016000018190555033600c828154811061164d5761164c613586565b5b906000526020600020906006020160050160008154811061167157611670613586565b5b906000526020600020906002020160010160006101000a81548173ffffffffffffffffffffffffffffffffffffffff021916908373ffffffffffffffffffffffffffffffffffffffff160217905550809150509695505050505050565b6000600560008473ffffffffffffffffffffffffffffffffffffffff1673ffffffffffffffffffffffffffffffffffffffff16815260200190815260200160002060008373ffffffffffffffffffffffffffffffffffffffff1673ffffffffffffffffffffffffffffffffffffffff16815260200190815260200160002060009054906101000a900460ff16905092915050565b80600b60006101000a81548173ffffffffffffffffffffffffffffffffffffffff021916908373ffffffffffffffffffffffffffffffffffffffff16021790555050565b60007f80ac58cd000000000000000000000000000000000000000000000000000000007bffffffffffffffffffffffffffffffffffffffffffffffffffffffff1916827bffffffffffffffffffffffffffffffffffffffffffffffffffffffff1916148061187157507f5b5e139f000000000000000000000000000000000000000000000000000000007bffffffffffffffffffffffffffffffffffffffffffffffffffffffff1916827bffffffffffffffffffffffffffffffffffffffffffffffffffffffff1916145b80611881575061188082611f05565b5b9050919050565b60008073ffffffffffffffffffffffffffffffffffffffff166002600084815260200190815260200160002060009054906101000a900473ffffffffffffffffffffffffffffffffffffffff1673ffffffffffffffffffffffffffffffffffffffff1614159050919050565b600033905090565b816004600083815260200190815260200160002060006101000a81548173ffffffffffffffffffffffffffffffffffffffff021916908373ffffffffffffffffffffffffffffffffffffffff160217905550808273ffffffffffffffffffffffffffffffffffffffff1661196f83610c54565b73ffffffffffffffffffffffffffffffffffffffff167f8c5be1e5ebec7d5bd14f71427d1e84f3dd0314c0f7b2291e5b200ac8c7c3b92560405160405180910390a45050565b60006119c082611888565b6119ff576040517f08c379a00000000000000000000000000000000000000000000000000000000081526004016119f69061399e565b60405180910390fd5b6000611a0a83610c54565b90508073ffffffffffffffffffffffffffffffffffffffff168473ffffffffffffffffffffffffffffffffffffffff161480611a7957508373ffffffffffffffffffffffffffffffffffffffff16611a6184610591565b73ffffffffffffffffffffffffffffffffffffffff16145b80611a8a5750611a8981856116ce565b5b91505092915050565b8273ffffffffffffffffffffffffffffffffffffffff16611ab382610c54565b73ffffffffffffffffffffffffffffffffffffffff1614611b09576040517f08c379a0000000000000000000000000000000000000000000000000000000008152600401611b0090613a30565b60405180910390fd5b600073ffffffffffffffffffffffffffffffffffffffff168273ffffffffffffffffffffffffffffffffffffffff161415611b79576040517f08c379a0000000000000000000000000000000000000000000000000000000008152600401611b7090613ac2565b60405180910390fd5b611b84838383611f6f565b611b8f6000826118fc565b6001600360008573ffffffffffffffffffffffffffffffffffffffff1673ffffffffffffffffffffffffffffffffffffffff1681526020019081526020016000206000828254611bdf91906135e4565b925050819055506001600360008473ffffffffffffffffffffffffffffffffffffffff1673ffffffffffffffffffffffffffffffffffffffff1681526020019081526020016000206000828254611c369190613ae2565b92505081905550816002600083815260200190815260200160002060006101000a81548173ffffffffffffffffffffffffffffffffffffffff021916908373ffffffffffffffffffffffffffffffffffffffff160217905550808273ffffffffffffffffffffffffffffffffffffffff168473ffffffffffffffffffffffffffffffffffffffff167fddf252ad1be2c89b69c2b068fc378daa952ba7f163c4a11628f55a4df523b3ef60405160405180910390a4505050565b611cfa848484611a93565b611d0684848484612083565b611d45576040517f08c379a0000000000000000000000000000000000000000000000000000000008152600401611d3c90613baa565b60405180910390fd5b50505050565b606060405180602001604052806000815250905090565b60606000821415611daa576040518060400160405280600181526020017f30000000000000000000000000000000000000000000000000000000000000008152509050611ebe565b600082905060005b60008214611ddc578080611dc590613bca565b915050600a82611dd59190613c42565b9150611db2565b60008167ffffffffffffffff811115611df857611df7612f49565b5b6040519080825280601f01601f191660200182016040528015611e2a5781602001600182028036833780820191505090505b5090505b60008514611eb757600182611e4391906135e4565b9150600a85611e529190613c73565b6030611e5e9190613ae2565b60f81b818381518110611e7457611e73613586565b5b60200101907effffffffffffffffffffffffffffffffffffffffffffffffffffffffffffff1916908160001a905350600a85611eb09190613c42565b9450611e2e565b8093505050505b919050565b6001816000016000828254019250508190555050565b600081600001549050919050565b611f0182826040518060200160405280600081525061221a565b5050565b60007f01ffc9a7000000000000000000000000000000000000000000000000000000007bffffffffffffffffffffffffffffffffffffffffffffffffffffffff1916827bffffffffffffffffffffffffffffffffffffffffffffffffffffffff1916149050919050565b611f7a838383612275565b600073ffffffffffffffffffffffffffffffffffffffff168373ffffffffffffffffffffffffffffffffffffffff161415611fbd57611fb88161227a565b611ffc565b8173ffffffffffffffffffffffffffffffffffffffff168373ffffffffffffffffffffffffffffffffffffffff1614611ffb57611ffa83826122c3565b5b5b600073ffffffffffffffffffffffffffffffffffffffff168273ffffffffffffffffffffffffffffffffffffffff16141561203f5761203a81612430565b61207e565b8273ffffffffffffffffffffffffffffffffffffffff168273ffffffffffffffffffffffffffffffffffffffff161461207d5761207c8282612501565b5b5b505050565b60006120a48473ffffffffffffffffffffffffffffffffffffffff16612580565b1561220d578373ffffffffffffffffffffffffffffffffffffffff1663150b7a026120cd6118f4565b8786866040518563ffffffff1660e01b81526004016120ef9493929190613cf9565b602060405180830381600087803b15801561210957600080fd5b505af192505050801561213a57506040513d601f19601f820116820180604052508101906121379190613d5a565b60015b6121bd573d806000811461216a576040519150601f19603f3d011682016040523d82523d6000602084013e61216f565b606091505b506000815114156121b5576040517f08c379a00000000000000000000000000000000000000000000000000000000081526004016121ac90613baa565b60405180910390fd5b805181602001fd5b63150b7a0260e01b7bffffffffffffffffffffffffffffffffffffffffffffffffffffffff1916817bffffffffffffffffffffffffffffffffffffffffffffffffffffffff191614915050612212565b600190505b949350505050565b6122248383612593565b6122316000848484612083565b612270576040517f08c379a000000000000000000000000000000000000000000000000000000000815260040161226790613baa565b60405180910390fd5b505050565b505050565b6008805490506009600083815260200190815260200160002081905550600881908060018154018082558091505060019003906000526020600020016000909190919091505550565b600060016122d084610d06565b6122da91906135e4565b90506000600760008481526020019081526020016000205490508181146123bf576000600660008673ffffffffffffffffffffffffffffffffffffffff1673ffffffffffffffffffffffffffffffffffffffff168152602001908152602001600020600084815260200190815260200160002054905080600660008773ffffffffffffffffffffffffffffffffffffffff1673ffffffffffffffffffffffffffffffffffffffff168152602001908152602001600020600084815260200190815260200160002081905550816007600083815260200190815260200160002081905550505b6007600084815260200190815260200160002060009055600660008573ffffffffffffffffffffffffffffffffffffffff1673ffffffffffffffffffffffffffffffffffffffff16815260200190815260200160002060008381526020019081526020016000206000905550505050565b6000600160088054905061244491906135e4565b905060006009600084815260200190815260200160002054905060006008838154811061247457612473613586565b5b90600052602060002001549050806008838154811061249657612495613586565b5b9060005260206000200181905550816009600083815260200190815260200160002081905550600960008581526020019081526020016000206000905560088054806124e5576124e4613d87565b5b6001900381819060005260206000200160009055905550505050565b600061250c83610d06565b905081600660008573ffffffffffffffffffffffffffffffffffffffff1673ffffffffffffffffffffffffffffffffffffffff168152602001908152602001600020600083815260200190815260200160002081905550806007600084815260200190815260200160002081905550505050565b600080823b905060008111915050919050565b600073ffffffffffffffffffffffffffffffffffffffff168273ffffffffffffffffffffffffffffffffffffffff161415612603576040517f08c379a00000000000000000000000000000000000000000000000000000000081526004016125fa90613e02565b60405180910390fd5b61260c81611888565b1561264c576040517f08c379a000000000000000000000000000000000000000000000000000000000815260040161264390613e6e565b60405180910390fd5b61265860008383611f6f565b6001600360008473ffffffffffffffffffffffffffffffffffffffff1673ffffffffffffffffffffffffffffffffffffffff16815260200190815260200160002060008282546126a89190613ae2565b92505081905550816002600083815260200190815260200160002060006101000a81548173ffffffffffffffffffffffffffffffffffffffff021916908373ffffffffffffffffffffffffffffffffffffffff160217905550808273ffffffffffffffffffffffffffffffffffffffff16600073ffffffffffffffffffffffffffffffffffffffff167fddf252ad1be2c89b69c2b068fc378daa952ba7f163c4a11628f55a4df523b3ef60405160405180910390a45050565b82805461276d9061327a565b90600052602060002090601f01602090048101928261278f57600085556127d6565b82601f106127a857803560ff19168380011785556127d6565b828001600101855582156127d6579182015b828111156127d55782358255916020019190600101906127ba565b5b5090506127e391906127e7565b5090565b5b808211156128005760008160009055506001016127e8565b5090565b6000604051905090565b600080fd5b600080fd5b60007fffffffff0000000000000000000000000000000000000000000000000000000082169050919050565b61284d81612818565b811461285857600080fd5b50565b60008135905061286a81612844565b92915050565b6000602082840312156128865761288561280e565b5b60006128948482850161285b565b91505092915050565b60008115159050919050565b6128b28161289d565b82525050565b60006020820190506128cd60008301846128a9565b92915050565b600081519050919050565b600082825260208201905092915050565b60005b8381101561290d5780820151818401526020810190506128f2565b8381111561291c576000848401525b50505050565b6000601f19601f8301169050919050565b600061293e826128d3565b61294881856128de565b93506129588185602086016128ef565b61296181612922565b840191505092915050565b600060208201905081810360008301526129868184612933565b905092915050565b6000819050919050565b6129a18161298e565b81146129ac57600080fd5b50565b6000813590506129be81612998565b92915050565b6000602082840312156129da576129d961280e565b5b60006129e8848285016129af565b91505092915050565b600073ffffffffffffffffffffffffffffffffffffffff82169050919050565b6000612a1c826129f1565b9050919050565b612a2c81612a11565b82525050565b6000602082019050612a476000830184612a23565b92915050565b612a5681612a11565b8114612a6157600080fd5b50565b600081359050612a7381612a4d565b92915050565b60008060408385031215612a9057612a8f61280e565b5b6000612a9e85828601612a64565b9250506020612aaf858286016129af565b9150509250929050565b612ac28161298e565b82525050565b6000602082019050612add6000830184612ab9565b92915050565b600080600060608486031215612afc57612afb61280e565b5b6000612b0a86828701612a64565b9350506020612b1b86828701612a64565b9250506040612b2c868287016129af565b9150509250925092565b60008060408385031215612b4d57612b4c61280e565b5b6000612b5b858286016129af565b9250506020612b6c85828601612a64565b9150509250929050565b600060a082019050612b8b6000830188612ab9565b8181036020830152612b9d8187612933565b90508181036040830152612bb18186612933565b9050612bc06060830185612a23565b8181036080830152612bd28184612933565b90509695505050505050565b600060208284031215612bf457612bf361280e565b5b6000612c0284828501612a64565b91505092915050565b612c148161289d565b8114612c1f57600080fd5b50565b600081359050612c3181612c0b565b92915050565b60008060408385031215612c4e57612c4d61280e565b5b6000612c5c85828601612a64565b9250506020612c6d85828601612c22565b9150509250929050565b600081519050919050565b600082825260208201905092915050565b6000819050602082019050919050565b612cac8161298e565b82525050565b600082825260208201905092915050565b6000612cce826128d3565b612cd88185612cb2565b9350612ce88185602086016128ef565b612cf181612922565b840191505092915050565b612d0581612a11565b82525050565b600081519050919050565b600082825260208201905092915050565b6000819050602082019050919050565b604082016000820151612d4d6000850182612ca3565b506020820151612d606020850182612cfc565b50505050565b6000612d728383612d37565b60408301905092915050565b6000602082019050919050565b6000612d9682612d0b565b612da08185612d16565b9350612dab83612d27565b8060005b83811015612ddc578151612dc38882612d66565b9750612dce83612d7e565b925050600181019050612daf565b5085935050505092915050565b600060c083016000830151612e016000860182612ca3565b5060208301518482036020860152612e198282612cc3565b91505060408301518482036040860152612e338282612cc3565b9150506060830151612e486060860182612cfc565b5060808301518482036080860152612e608282612cc3565b91505060a083015184820360a0860152612e7a8282612d8b565b9150508091505092915050565b6000612e938383612de9565b905092915050565b6000602082019050919050565b6000612eb382612c77565b612ebd8185612c82565b935083602082028501612ecf85612c93565b8060005b85811015612f0b5784840389528151612eec8582612e87565b9450612ef783612e9b565b925060208a01995050600181019050612ed3565b50829750879550505050505092915050565b60006020820190508181036000830152612f378184612ea8565b905092915050565b600080fd5b600080fd5b7f4e487b7100000000000000000000000000000000000000000000000000000000600052604160045260246000fd5b612f8182612922565b810181811067ffffffffffffffff82111715612fa057612f9f612f49565b5b80604052505050565b6000612fb3612804565b9050612fbf8282612f78565b919050565b600067ffffffffffffffff821115612fdf57612fde612f49565b5b612fe882612922565b9050602081019050919050565b82818337600083830152505050565b600061301761301284612fc4565b612fa9565b90508281526020810184848401111561303357613032612f44565b5b61303e848285612ff5565b509392505050565b600082601f83011261305b5761305a612f3f565b5b813561306b848260208601613004565b91505092915050565b6000806000806080858703121561308e5761308d61280e565b5b600061309c87828801612a64565b94505060206130ad87828801612a64565b93505060406130be878288016129af565b925050606085013567ffffffffffffffff8111156130df576130de612813565b5b6130eb87828801613046565b91505092959194509250565b600080fd5b600080fd5b60008083601f84011261311757613116612f3f565b5b8235905067ffffffffffffffff811115613134576131336130f7565b5b6020830191508360018202830111156131505761314f6130fc565b5b9250929050565b600080600080600080606087890312156131745761317361280e565b5b600087013567ffffffffffffffff81111561319257613191612813565b5b61319e89828a01613101565b9650965050602087013567ffffffffffffffff8111156131c1576131c0612813565b5b6131cd89828a01613101565b9450945050604087013567ffffffffffffffff8111156131f0576131ef612813565b5b6131fc89828a01613101565b92509250509295509295509295565b600080604083850312156132225761322161280e565b5b600061323085828601612a64565b925050602061324185828601612a64565b9150509250929050565b7f4e487b7100000000000000000000000000000000000000000000000000000000600052602260045260246000fd5b6000600282049050600182168061329257607f821691505b602082108114156132a6576132a561324b565b5b50919050565b7f4552433732313a20617070726f76656420717565727920666f72206e6f6e657860008201527f697374656e7420746f6b656e0000000000000000000000000000000000000000602082015250565b6000613308602c836128de565b9150613313826132ac565b604082019050919050565b60006020820190508181036000830152613337816132fb565b9050919050565b7f4552433732313a20617070726f76616c20746f2063757272656e74206f776e6560008201527f7200000000000000000000000000000000000000000000000000000000000000602082015250565b600061339a6021836128de565b91506133a58261333e565b604082019050919050565b600060208201905081810360008301526133c98161338d565b9050919050565b7f4552433732313a20617070726f76652063616c6c6572206973206e6f74206f7760008201527f6e6572206e6f7220617070726f76656420666f7220616c6c0000000000000000602082015250565b600061342c6038836128de565b9150613437826133d0565b604082019050919050565b6000602082019050818103600083015261345b8161341f565b9050919050565b7f4552433732313a207472616e736665722063616c6c6572206973206e6f74206f60008201527f776e6572206e6f7220617070726f766564000000000000000000000000000000602082015250565b60006134be6031836128de565b91506134c982613462565b604082019050919050565b600060208201905081810360008301526134ed816134b1565b9050919050565b7f455243373231456e756d657261626c653a206f776e657220696e646578206f7560008201527f74206f6620626f756e6473000000000000000000000000000000000000000000602082015250565b6000613550602b836128de565b915061355b826134f4565b604082019050919050565b6000602082019050818103600083015261357f81613543565b9050919050565b7f4e487b7100000000000000000000000000000000000000000000000000000000600052603260045260246000fd5b7f4e487b7100000000000000000000000000000000000000000000000000000000600052601160045260246000fd5b60006135ef8261298e565b91506135fa8361298e565b92508282101561360d5761360c6135b5565b5b828203905092915050565b7f455243373231456e756d657261626c653a20676c6f62616c20696e646578206f60008201527f7574206f6620626f756e64730000000000000000000000000000000000000000602082015250565b6000613674602c836128de565b915061367f82613618565b604082019050919050565b600060208201905081810360008301526136a381613667565b9050919050565b7f4552433732313a206f776e657220717565727920666f72206e6f6e657869737460008201527f656e7420746f6b656e0000000000000000000000000000000000000000000000602082015250565b60006137066029836128de565b9150613711826136aa565b604082019050919050565b60006020820190508181036000830152613735816136f9565b9050919050565b7f4552433732313a2062616c616e636520717565727920666f7220746865207a6560008201527f726f206164647265737300000000000000000000000000000000000000000000602082015250565b6000613798602a836128de565b91506137a38261373c565b604082019050919050565b600060208201905081810360008301526137c78161378b565b9050919050565b7f4552433732313a20617070726f766520746f2063616c6c657200000000000000600082015250565b60006138046019836128de565b915061380f826137ce565b602082019050919050565b60006020820190508181036000830152613833816137f7565b9050919050565b7f4552433732314d657461646174613a2055524920717565727920666f72206e6f60008201527f6e6578697374656e7420746f6b656e0000000000000000000000000000000000602082015250565b6000613896602f836128de565b91506138a18261383a565b604082019050919050565b600060208201905081810360008301526138c581613889565b9050919050565b600081905092915050565b60006138e2826128d3565b6138ec81856138cc565b93506138fc8185602086016128ef565b80840191505092915050565b600061391482856138d7565b915061392082846138d7565b91508190509392505050565b7f4552433732313a206f70657261746f7220717565727920666f72206e6f6e657860008201527f697374656e7420746f6b656e0000000000000000000000000000000000000000602082015250565b6000613988602c836128de565b91506139938261392c565b604082019050919050565b600060208201905081810360008301526139b78161397b565b9050919050565b7f4552433732313a207472616e73666572206f6620746f6b656e2074686174206960008201527f73206e6f74206f776e0000000000000000000000000000000000000000000000602082015250565b6000613a1a6029836128de565b9150613a25826139be565b604082019050919050565b60006020820190508181036000830152613a4981613a0d565b9050919050565b7f4552433732313a207472616e7366657220746f20746865207a65726f2061646460008201527f7265737300000000000000000000000000000000000000000000000000000000602082015250565b6000613aac6024836128de565b9150613ab782613a50565b604082019050919050565b60006020820190508181036000830152613adb81613a9f565b9050919050565b6000613aed8261298e565b9150613af88361298e565b9250827fffffffffffffffffffffffffffffffffffffffffffffffffffffffffffffffff03821115613b2d57613b2c6135b5565b5b828201905092915050565b7f4552433732313a207472616e7366657220746f206e6f6e20455243373231526560008201527f63656976657220696d706c656d656e7465720000000000000000000000000000602082015250565b6000613b946032836128de565b9150613b9f82613b38565b604082019050919050565b60006020820190508181036000830152613bc381613b87565b9050919050565b6000613bd58261298e565b91507fffffffffffffffffffffffffffffffffffffffffffffffffffffffffffffffff821415613c0857613c076135b5565b5b600182019050919050565b7f4e487b7100000000000000000000000000000000000000000000000000000000600052601260045260246000fd5b6000613c4d8261298e565b9150613c588361298e565b925082613c6857613c67613c13565b5b828204905092915050565b6000613c7e8261298e565b9150613c898361298e565b925082613c9957613c98613c13565b5b828206905092915050565b600081519050919050565b600082825260208201905092915050565b6000613ccb82613ca4565b613cd58185613caf565b9350613ce58185602086016128ef565b613cee81612922565b840191505092915050565b6000608082019050613d0e6000830187612a23565b613d1b6020830186612a23565b613d286040830185612ab9565b8181036060830152613d3a8184613cc0565b905095945050505050565b600081519050613d5481612844565b92915050565b600060208284031215613d7057613d6f61280e565b5b6000613d7e84828501613d45565b91505092915050565b7f4e487b7100000000000000000000000000000000000000000000000000000000600052603160045260246000fd5b7f4552433732313a206d696e7420746f20746865207a65726f2061646472657373600082015250565b6000613dec6020836128de565b9150613df782613db6565b602082019050919050565b60006020820190508181036000830152613e1b81613ddf565b9050919050565b7f4552433732313a20746f6b656e20616c7265616479206d696e74656400000000600082015250565b6000613e58601c836128de565b9150613e6382613e22565b602082019050919050565b60006020820190508181036000830152613e8781613e4b565b905091905056fea264697066735822122038c1c073e572eddd442fbbee356d8578f03ea5234c7b4bf096dd4ac5a713f52a64736f6c63430008090033",
  "immutableReferences": {},
  "source": "// SPDX-License-Identifier: MIT\r\npragma solidity >=0.8.0 <0.9.0;\r\nimport \"@openzeppelin/contracts/token/ERC721/ERC721.sol\";\r\nimport \"@openzeppelin/contracts/token/ERC721/extensions/ERC721Enumerable.sol\";\r\nimport \"@openzeppelin/contracts/utils/Counters.sol\";\r\n\r\ncontract nft is ERC721Enumerable{\r\n    using Counters for Counters.Counter;\r\n\r\n    Counters.Counter private _tokenIds;\r\n    address public auctionplace;\r\n\r\n    struct nftItem {\r\n        uint256 id;\r\n        string name;\r\n        string description;\r\n        address creator;\r\n        string hash;\r\n        history[] his;\r\n    }\r\n    struct history {\r\n        uint256 owntime;\r\n        address owner;\r\n    }\r\n    nftItem[] public nftItems;\r\n\r\n    constructor() ERC721(\"nft\", \"NFT\") {\r\n        nftItems.push();\r\n    }\r\n\r\n    function mint(string calldata hash, string calldata name, string calldata description) public returns (uint256){\r\n        _tokenIds.increment();\r\n        uint256 newId = _tokenIds.current();\r\n        _safeMint(msg.sender, newId);\r\n        approve(auctionplace, newId);\r\n        nftItems.push();\r\n\r\n        nftItems[newId].id = newId;\r\n        nftItems[newId].name = name;\r\n        nftItems[newId].description = description;\r\n        nftItems[newId].creator = msg.sender; \r\n        nftItems[newId].hash = hash;\r\n        nftItems[newId].his.push();\r\n        nftItems[newId].his[0].owntime = block.timestamp;\r\n        nftItems[newId].his[0].owner = msg.sender; \r\n        \r\n        return newId;\r\n    }\r\n\r\n\r\n    function setAuctionplace(address auction) public {\r\n        auctionplace = auction;\r\n    }\r\n\r\n\r\n    function ownerchange(uint256 id, address newowner) public {\r\n        nftItems[id].his.push();\r\n        uint len = nftItems[id].his.length;\r\n        nftItems[id].his[len - 1].owntime = block.timestamp;\r\n        nftItems[id].his[len - 1].owner = newowner;\r\n\r\n\r\n    }\r\n    function getallnft() external returns(nftItem[] memory) {\r\n        return nftItems;\r\n    } \r\n\r\n\r\n\r\n\r\n}",
  "sourcePath": "D:\\Code\\code_truffle\\xkl\\contracts\\nft.sol",
  "compiler": {
    "name": "solc",
    "version": "0.8.9+commit.e5eed63a.Emscripten.clang"
  },
  "schemaVersion": "3.4.3",
  "updatedAt": "2021-11-06T10:17:44.794Z",
  "networkType": "ethereum",
  "devdoc": {
    "kind": "dev",
    "methods": {
      "approve(address,uint256)": {
        "details": "See {IERC721-approve}."
      },
      "balanceOf(address)": {
        "details": "See {IERC721-balanceOf}."
      },
      "getApproved(uint256)": {
        "details": "See {IERC721-getApproved}."
      },
      "isApprovedForAll(address,address)": {
        "details": "See {IERC721-isApprovedForAll}."
      },
      "name()": {
        "details": "See {IERC721Metadata-name}."
      },
      "ownerOf(uint256)": {
        "details": "See {IERC721-ownerOf}."
      },
      "safeTransferFrom(address,address,uint256)": {
        "details": "See {IERC721-safeTransferFrom}."
      },
      "safeTransferFrom(address,address,uint256,bytes)": {
        "details": "See {IERC721-safeTransferFrom}."
      },
      "setApprovalForAll(address,bool)": {
        "details": "See {IERC721-setApprovalForAll}."
      },
      "supportsInterface(bytes4)": {
        "details": "See {IERC165-supportsInterface}."
      },
      "symbol()": {
        "details": "See {IERC721Metadata-symbol}."
      },
      "tokenByIndex(uint256)": {
        "details": "See {IERC721Enumerable-tokenByIndex}."
      },
      "tokenOfOwnerByIndex(address,uint256)": {
        "details": "See {IERC721Enumerable-tokenOfOwnerByIndex}."
      },
      "tokenURI(uint256)": {
        "details": "See {IERC721Metadata-tokenURI}."
      },
      "totalSupply()": {
        "details": "See {IERC721Enumerable-totalSupply}."
      },
      "transferFrom(address,address,uint256)": {
        "details": "See {IERC721-transferFrom}."
      }
    },
    "version": 1
  },
  "userdoc": {
    "kind": "user",
    "methods": {},
    "version": 1
  }
}